:100000000EC017C016C015C014C013C012C011C056
:1000100010C00FC00EC00DC00CC00BC00AC0112410
:100020001FBECFE5D2E0DEBFCDBF04D000C0F89444
:02003000FFCF00
:02003200E6CF17
:1000340082E087BB83E28ABD8AE083BF87E289BD11
:1000440018BC91E080E015C081110AC09FEF23E243
:1000540034EF915020403040E1F700C0000091E0BF
:100064004FE72AE136E0415020403040E1F700C03C
:10007400000088BD890F873239F72FEF33E244EF50
:10008400215030404040E1F700C000009FEFE8CF2E
:00000001FF
